:100000000C948B000C9400000C9400000C940000E5
:100010000C9400000C9400000C9400000C94000060
:100020000C9400000C9400000C9400000C94000050
:100030000C9400000C9400000C9400000C94000040
:100040000C9400000C9400000C9400000C94000030
:100050000C940000000040420F0008010801290133
:10006000080160014A0108010801290108018C0109
:100070006001080108010801B801600160014A013E
:100080002901D201D201B80160018C016001FA009E
:10009000FA00E803E803E803D007FA00FA00E803EF
:1000A000E803E803D007FA00FA00E803E803F401E4
:1000B000FA00E803D007FA00FA00E803E803E803CF
:1000C000D007F401FA00FA00FA00FA00F401F40192
:1000D000FA00FA00FA00FA00F401F401FA00FA005A
:1000E000FA00FA00FA00FA00F401F401FA00FA004A
:1000F000FA00FA00FA000100070054000300600251
:10010000560034006C025A003400A0028E00330006
:10011000D402C2000000F894EE27ECBBF1E0F5BF7A
:10012000E5BF8DE0A2E0BB27ED938A95E9F780E07B
:1001300098E0A0E6ED930197E9F7E6EFF0E085910E
:100140009591009761F0A591B59105901590BF012B
:10015000F00105900D920197E1F7FB01F0CFEFE57B
:10016000EDBFE8E0EEBFC0E6D2E00C94B700E0E2FD
:10017000E1BBE0E0E2BBE2E8EFBDEAE1EEBDE0E0DA
:10018000EDBDECBDE7BDE6BDEBBDEABDE9BDE8BD3B
:10019000E72DACE6B2E04DD06627772752D0A0EA33
:1001A000B2E047D059D063D04CD0A4EDB2E041D0FA
:1001B00053D07394EAE1E71571F459D0E0936402E7
:1001C000F0936502609366027093670206D077240D
:1001D000A8EBBBE0ABD1DCCFFFCFE0916402F091A4
:1001E00065026091660270916702A0916002B09111
:1001F0006102809162029091630298D0E09368025C
:10020000F093690260936A0270936B0240906802F7
:1002100050906902F20144D0E7BDE42DE6BDD20161
:10022000E2E0F0E05AD02F013BD0EBBDE42DEABD77
:100230000895F0E0EE0FFF1FAE0FBF1FED91FD918F
:100240000895E0936402F0936502609366027093F0
:100250006702C3DFE72D089566277727ECD0A0E07B
:10026000B0E080E09FE314D1ADD0DF015FC1E0E5F5
:10027000F3EC60E070E00895F195E195F0400895A9
:10028000F09560957095E195FF4F6F4F7F4F089502
:10029000B09580959095A195BF4F8F4F9F4F089532
:1002A000EF2FFF27E7FDFFEF08956F2F660F660B17
:1002B000762F08950024112490E1AA0FBB1F001C83
:1002C000111C0E1A1F0A18F40E0E1F1E01C0A16089
:1002D0009A9599F7FD01D00108952DD0EBDF0EF42A
:1002E000CBDF08953F934F935F9300241124A00127
:1002F00030E2AA0FBB1F881F991F001C111C441F4E
:10030000551F0E1A1F0A460B570B28F40E0E1F1E00
:10031000461F571F01C0A1603A9559F7FD01BC0166
:10032000D001CA015F914F913F91089512D0DADF59
:100330000EF4A6DF0895E894F7FF02C09DDF6894ED
:10034000B7FF06C0B195A195B04000F8039400FA3C
:100350000895E89477FF02C093DF689497FF04C084
:1003600097DF00F8039400FA0895552342F45038BB
:1003700011F4E0FF04C03196691F791F6BF050E85B
:10038000572711F45F9373C05F3F31F0660F000C85
:1003900057956795752F08955F9300200AF072C0F6
:1003A0006BC050E8192E1522880F991F9527550FFD
:1003B000879550E8072E0522660F771F7527550F82
:1003C00067950895689401C0E8945F93F2DF7038F0
:1003D00018F07F3F08F44BC056E1571BAAF4519523
:1003E00058300EF4593030F0EFEFFFEF6FEF7FE74A
:1003F00077F91AC077275523B9F0EE0FFF1F661F54
:10040000771F5A95D1F710C07727583028F0EF2F73
:10041000F62F672F5850F9CF552331F07695679511
:10042000F795E7955A95D1F700200AF429DF5F91F7
:100430000895689401C0E894309760407040B1F02E
:10044000002426F0772312F400941ADF172E7EE1A1
:10045000112032F07A95EE0FFF1F661F111CF9CFA5
:10046000EF2FF62F612D5F938ADF5F910895EE27BE
:10047000FF27BF015F910895EFEFFFEF6FE77FEF79
:100480005F910895EFEFFFEF6FE77FE75F910895CA
:100490005F9387DF703859F3903849F3012408944B
:1004A000791F23F424F300203AF3ECCF0F921F932B
:1004B0002F933F934F93112722279927689FA001DD
:1004C0008F9F302D410D591F6B9F300D411D591FBE
:1004D0008E9F27D0BF9F25D06A9F23D0BE9F1DD05F
:1004E000AF9F1BD0AE9F110D291F391F491F591FE8
:1004F000E32FF42F652F522F4F913F912F911F9192
:100500000F9066232AF0550FEE1FFF1F661F02C0D3
:1005100073954BF22ADF5F910895100D211D391F4D
:1005200002C0200D311D491F591F0895109639F042
:10053000A89580ED97E00197F1F71197C9F7089515
:00000001FF
